:100000000C94C8020C94E5020C94E5020C94E502F1
:100010000C94E5020C94E5020C94E5020C94E502C4
:100020000C94E5020C94E5020C949F320C948733F7
:100030000C9454320C94E5020C94E5020C94E50205
:100040000C94E5020C94E5020C94E5020C94E50294
:100050000C94E5020C947B320C94E5020C94E502BE
:100060000C94E5020C94E5020C94E5020C94E50274
:100070000C94E5020C94E5020C94E5020C94E50264
:100080000C94E5020C94E5020C94E5020C94E50254
:100090000C94E5020C94E5020C94E5020C94E50244
:1000A0000C94E5020C94E5020C94E50205010902AA
:1000B000A10185020901A1000509190129081500FE
:1000C0002501950875018102050109300931158165
:1000D000257F95027508810609381581257F9501D0
:1000E00075088106050C0A38021581257F95017572
:1000F000088106C0C005010980A101850319012AF4
:10010000B700150126B700950175108100C0050CD8
:100110000901A101850419012AA002150126A002E6
:10012000950175108100C005010906A1018506052C
:100130000719E029E71500250195087501810205D9
:1001400007190029EF1500250195F07501810205B9
:10015000081901290595057501910295017503910D
:1001600001C00660FF0961A1010962150026FF00B8
:100170009520750881020963150026FF00952075FA
:10018000089102C005010906A101050719E029E748
:1001900015002501950875018102950175088101F9
:1001A0000507190029FF150026FF0095067508812F
:1001B000000508190129051500250195057501910E
:1001C00002950175039101C00000000000000000CD
:1001D000000000000000000000000000000000001F
:1001E0000000000000000000000000007E0F00D4AE
:1001F000FFFFFFC7000000780000000000000000C3
:100200002A2B280000000000000000000000000071
:1002100000000029000000002C1E3420212224347C
:100220002627252E362D3738271E1F20212223244E
:1002300025263333362E37381F0405060708090AEA
:100240000B0C0D0E0F101112131415161718191A86
:100250001B1C1D2F3130232D350405060708090A04
:100260000B0C0D0E0F101112131415161718191A66
:100270001B1C1D2F3130354C09025B00030100A00F
:10028000FA09040000010301010009211101000124
:10029000224400070581030800010904010002034C
:1002A000000000092111010001222200070582033C
:1002B00020000107050303200001090402000103D7
:1002C00000000009211101000122B6000705840386
:1002D0002000011201000200000008424603000055
:1002E00001010203011C037600690061006C003A01
:1002F00000660036003400630032006200330063A1
:100300000000000C034C00650072006F00790000D3
:10031000000C0366006C00620075006D00000004B4
:10032000030904290000000000AE000400050006D7
:100330000007001E001F0020002100010000000037
:1003400000010001000100010001000100010001A5
:100350000001000100000000000100010001000197
:100360000001000100010001000100010000000087
:100370000001000100010001000100010001000175
:100380000001004F005000A900AA00010001000177
:100390000001000100010001000100010001000155
:1003A0000001000100010039057F179517000002C8
:1003B00000020035057F1795170000030001003A81
:1003C000057F1795170000040002001F057F179591
:1003D000178206050001003B057F179517000006F0
:1003E00000020021057F1795170000070002003763
:1003F000057F1795170000080001003C057F179541
:100400001700000900020023057F1795178B060AC5
:1004100000020025057F1795178B060B00020027A9
:10042000057F1795178B060C00020029057F17958D
:10043000178B060D0002002B057F1795178B060EF4
:100440000002002D057F1795178B060F0002002F65
:10045000057F1795178B061000020031057F179551
:10046000178B061100020033057F1795178B0612B4
:100470000002003D057F1795170000130002003FA2
:10048000057F17951700001400010041057F17959F
:10049000170000150000000000B006C9100000FDA4
:1004A000377A585A000004E6D6B4460200210116F5
:1004B000000000742FE5A3E0016100AF5D003D88FE
:1004C00089C65436C3174FE4E20E161C0D8B654BDC
:1004D000A1C25B80C0CB657B91D0F576EDB7FAA663
:1004E0003D0328E00AFF79D801425192DF123128FA
:1004F000E41C523F3F518CC444B1B2ADAC0B4783B6
:10050000A148E31D55BBADF4096EF084DE76CD4EF7
:10051000FD82EF503E8272FA29C4E7A31C48B85608
:100520000518A51BACE58D155E6362D0D9BBCCFB6D
:100530002436730AAC9D4EEED14A5CFD80AF206A32
:10054000086E8733D9609640BB56259A9281234521
:10055000A0EDF4D19A0FD605FBC2F04A360B050E7A
:100560001C3C6BEF35E7C5750C56C60A4C0000D332
:10057000DB358EADDA7A170001CB01E2020000C74D
:100580004EE8FAB1C467FB020000000004595A00AB
:1005900011241FBECFEFDAE0DEBFCDBF11E0A0E037
:1005A000B1E0E4E9FAE602C005900D92AA3BB1077A
:1005B000D9F725E0AAEBB1E001C01D92A834B2073B
:1005C000E1F70E94A3290C94CE340C9400009C0106
:1005D0009A9581159F4118F5F32FF270EE27832F1E
:1005E0008170732F74706627532F5870442734FF1F
:1005F0000CC08295807FEF2B09F08062672B09F099
:100600008064452B69F080680895EF2B09F08260C3
:10061000672B09F08460452B19F08860089580E00D
:100620000895CF93DF93EB010E94E702FE01099545
:10063000DF91CF910895282F92959F70963099F071
:1006400060F4925F9F70923030F4203FB1F038F444
:1006500081E0283E38F080E008959A5FF3CF81E092
:10066000243FC9F7089591E0813F09F090E081E0CF
:10067000283E08F080E0892B089581E0089580935A
:100680001D05089580931E05089521E030E001C006
:10069000220F8A95EAF780911E05822B0E94420361
:1006A000089521E030E0A90102C0440F551F8A954A
:1006B000E2F7CA01809590911E0589230E944203AA
:1006C00008959B01677091E001C0990F6A95EAF760
:1006D00063E0369527956A95E1F7B901660F771FB4
:1006E000260F371FFA01E20FF31F40E050E0682F9A
:1006F00070E08191DF019B01042E02C036952795A1
:100700000A94E2F7217021952827292328272E9380
:100710004F5F5F4F4330510561F708959C01A82F4B
:10072000A77083E0369527958A95E1F7C901880F70
:10073000991F820F931FFB01E80FF91F40E050E063
:1007400080E0219130E00A2E02C0369527950A9468
:10075000E2F721703327042E01C0220F0A94EAF732
:10076000822B4F5F5F4F4330510559F70895282F73
:10077000862F903F71F0933068F4243050F434E0C9
:10078000939FB0011124620F711D42E353E00E9458
:10079000610308959C5F9230E0F7622F70E04FE2B2
:1007A00053E0F5CF282F903FB1F0933068F48430B8
:1007B00090F434E0939FC001112462E373E0820F50
:1007C000911D0E948E0308959C5F923020F46FE289
:1007D00073E090E0F6CF80E0089590911E0521E04F
:1007E00030E0F90101C0EE0F8A95EAF7D90102C0A5
:1007F000AA0FBB1F6A95E2F7EA2B01C0220F4A95A8
:10080000EAF7892F8E23E81305C0892F822B0E94D7
:10081000420308952095822F8923F9CF8091DD022C
:100820009091DC02981301C008958F5F8770FACF12
:1008300090916B048095892380936B04282F2770F7
:10084000211111C0891779F09091440592FF0BC0D6
:100850008695869586950E94510310926B0410929E
:100860006D0410926C04089590916704982B9093F6
:1008700067040895982F9095809167048923809349
:100880006704089580916504811531F01092650424
:10089000109264041092630408959C01803E9105B7
:1008A00009F448C0D8F48133910509F47DC048F4B7
:1008B0008932910509F46DC08A9709F47CC0C90199
:1008C00008958933910551F18238910539F1C59721
:1008D000B1F78091430585FFF2CF29C0843E910591
:1008E00009F447C048F4823E910599F1833E910591
:1008F000A9F121EE30E0E3CF863E910509F444C032
:10090000873E9105E1F68091430583FD61C090919A
:10091000440591FF2BC024EE30E0D1CF80914305F8
:100920008370811152C08091440583FFC8CF29E2B2
:1009300030E0C5CF8091430580FD33C090914405E0
:1009400090FFBDCF23EE30E084FFB9CF20E030E050
:10095000B6CF8091430582FDF5CFB1CF809143059D
:1009600082FD30C09091440590FD2FC084FFA7CF39
:10097000EDCF8091440581FFA2CF8091430527EE02
:1009800030E084FDE3CF9BCF8091430583FDF7CF1B
:1009900096CF8091430585FD1EC08091440583FF5D
:1009A0008ECF29E330E08BCF8091430586FF87CF40
:1009B0002AE230E084CF8091430586FF80CF21E397
:1009C00030E07DCF22EE30E07ACF20EE30E077CFFE
:1009D00026EE30E074CF25E330E071CF90914305EF
:1009E00092FF10C041E0282F2471243009F040E02C
:1009F00031E0282F2871283009F030E0431711F03A
:100A00002CE0822793FF10C041E0282F247124316D
:100A100009F040E031E0282F2871283109F030E05A
:100A2000431711F02CE082273091440530FF10C0AD
:100A300051E0282F2171213009F050E041E0282FAA
:100A40002871283009F040E0541711F029E082277E
:100A500031FF10C041E0282F2171213109F040E021
:100A600031E0282F2871283109F030E0431711F0C8
:100A700029E0822794FD877E08951F93CF93DF930B
:100A80000E944D04EC01811522E5920708F055C043
:100A9000811540E5940708F0D1C0803E910520F50E
:100AA0008D3C910508F0A4C0883A910570F4853A10
:100AB000910508F09AC081309105D1F10497813AEF
:100AC0009105B0F1C0E0D0E033C0885A91094B974E
:100AD000C8F7C85AD0E0CC0FDD1FC25BDE4F0990CB
:100AE000D881C02DD46424C0811550E49507C0F48A
:100AF000C11580E2D80708F0B7C0C83ED105C0F0E4
:100B0000CE019A9581159F41E8F68D2F0E94EE0443
:100B1000182FCE0199270E944D04EC01D12B08C05B
:100B200099270E944D04CC27DF70C82BD92BD06A9F
:100B3000CE01DF91CF911F910895803842E594074F
:100B4000C8F5803652E5950708F05BC0C03482E5F1
:100B5000D807D0F4C03292E5D90708F04BC08C2FEB
:100B60008695869520E2829FC0011124C37021E002
:100B700030E0A90102C0440F551FCA95E2F7EA010F
:100B8000C82BD92BDD68D4CF8C2F8695869587709E
:100B900050E2859FC0011124C37021E030E0A9011B
:100BA00002C0440F551FCA95E2F7EA01C82BD92BA2
:100BB000DC68BECF803C52E5950758F48F71C03A8F
:100BC000D245A0F590E0982F8827EC01C46FD06A39
:100BD000AFCF805C9245809708F074CFDC2FCC2794
:100BE000CC27DF71C06FD06AA3CFA497D064A0CF09
:100BF000D0659ECFCF71D0E0DC2FCC27C16FD06AFB
:100C000097CF86958695877020E2829FC001112438
:100C1000C37021E030E0A90102C0440F551FCA95FE
:100C2000E2F7EA01C82BD92BDA6882CF0E94EE04E2
:100C3000C82FD0E0DC2FCC27D0627ACF8F710E94F2
:100C4000EE0493E0CC0FDD1F9A95E1F7CC27DF701F
:100C5000282F30E084FF04C050E1859F90011124CB
:100C6000C22BD32BD06964CF8D2F8F710E94EE04DD
:100C7000182FCE0199270E944D04EC01D12BDCCF17
:100C800080E00895F894E82FE295EF70F0E041A13C
:100C90008F7021E030E0B90102C0660F771F8A959E
:100CA000E2F7CB01962F9095942391A392A1892BE3
:100CB00082A3789408959C0121158CE7380741F4AC
:100CC0008091A9029091AA02892B11F420E030E0D2
:100CD000C9010895E0EDF3E080E090E064EB78E294
:100CE0004AED58E22FE439E27783668351874087E3
:100CF000338722879787868701967096883091057B
:100D000099F7089580911F059091200590930F0108
:100D100080930E010895EFE1F5E0848195812AE04A
:100D200030E0B9010E94D233609312018681809332
:100D30001301828580930301848580930201868557
:100D40009785B9010E94D233609310018089809306
:100D500011018289809301018489809300010895A3
:100D6000EF92FF920F931F93CF93DF93FB018FEFCF
:100D70009FEF4430510508F45FC04091430541FBAB
:100D8000882780F990E0880F991F42FB002700F91F
:100D900010E0000F111F000F111F802B912B40FB43
:100DA000EE24E0F8F12C8E299F2943FB222720F91D
:100DB000C22F50E0D52F53E0CC0FDD1F5A95E1F73D
:100DC0008C2B9D2B44FB222720F950E1259F90017D
:100DD0001124822B932B45FB222720F950E2259FDB
:100DE00090011124822B932B46FB222720F950E4FB
:100DF000259F90011124822B932B47FB222720F95A
:100E000040E8249F90011124822B932B20914405CC
:100E1000322F3170932B26952170B22FBB0FA0E09B
:100E20008A2B9B2B092E000CAA0BBB0B8083918372
:100E3000A283B38380E090E0CDB7DEB7E6E00C9408
:100E40002F3490E06115E9F08B5C9E4FFC018081AE
:100E50008F3FB1F0E82FE295EF70F0E041A18F7085
:100E600021E030E0B90102C0660F771F8A95E2F7F2
:100E7000CB01962F9095942391A392A1892B82A3C5
:100E800008958D5C9E4FE2CF90E06115A9F08B5CD8
:100E90009E4FFC0120812F3F91F0E22FE295EF70F1
:100EA000E05EF0E0808190E02F7002C0959587951C
:100EB0002A95E2F7817008958D5C9E4FEACF80E01D
:100EC00008959C0143E0969587954A95E1F78E71C8
:100ED0009927FC01EB5FFD4F40815181F901EF70D3
:100EE000FF2721E030E002C0220F331FEA95E2F72E
:100EF000611541F0422B532B8B5F9D4FFC015183B9
:100F0000408308952095309542235323F5CF1092C6
:100F1000AF041092AE04EEE6F4E08581811102C0C8
:100F200014821682379684E0E63AF807B1F70895FE
:100F3000AC013091B1046091B004232F621301C061
:100F40000895822F90E0FC01EE0FFF1FEA55FB4F42
:100F50000190F081E02DE417F50791F467E0649FBC
:100F6000F001659FF00D1124E259FB4F41E04483ED
:100F70002313E6CF0196837099278093B1040895D7
:100F80000196282F2370DACFFC01848186238111FA
:100F90000AC082818115B9F06823908593FF05C04E
:100FA00081E061110FC080E00895282F22952F70F5
:100FB0008F70282B962F92959F706F70962B81E0E3
:100FC0002913F1CF089581E00895282F35EB2303ED
:100FD000C001112497FF04C080589109892F0895FA
:100FE00080589F4FFBCF80913A0360912705709105
:100FF000280580FF14C020910301269FC001279F70
:10100000900D1124BC0176956795769567956038AB
:101010007105F0F561157105E9F1862F089581FFDD
:101020000BC020910301269FC001279F900D112422
:10103000BC0176956795EBCF82FF09C080910301D3
:101040009B01829FB001839F700D1124E0CF80919E
:1010500039038115E1F29091020120910301891772
:1010600038F0CB01289FB001299F700D1124CFCFFC
:10107000289F90011124269FA001279F500D369F85
:10108000500D1124692F70E0CA010E94D233BFCFE6
:101090008FE7089581E0089580913A0380FF0CC0A6
:1010A0006091010170E0759567957595679561157B
:1010B000710549F1862F089581FF06C060910101F5
:1010C00070E075956795F3CF6091010182FD0BC0CB
:1010D000909138039115A1F0609100018091010178
:1010E000961738F0682F70E06038710500F38FE7CD
:1010F0000895899FC001112470E00E94E633F4CF67
:1011000061E070E0D7CF81E00895FA01309709F0EF
:1011100009950895E091D202F091D302309729F019
:101120000190F081E02D0995089580E00895A3E0F5
:10113000B0E0EDE9F8E00C9417349C0180910202D4
:101140009091030282179307A1F03093030220933A
:101150000202E091D202F091D302309751F083E085
:1011600089833B832A830084F185E02DCE0101969B
:1011700009952396E2E00C943334A3E0B0E0E3EC6D
:10118000F8E00C9417349C018091000290910102C8
:1011900082179307A1F03093010220930002E0919F
:1011A000D202F091D302309751F084E089833B83DF
:1011B0002A830084F185E02DCE01019609952396BE
:1011C000E2E00C94333490911601913091F0AEEB43
:1011D000B1E0EFEF90E02D91821751F0EF3F19F45D
:1011E000211101C0E92F9F5F9630A9F7EF3FC9F4A5
:1011F00008959091430597FFEACFE82FE695E6958D
:10120000E695803FA8F7F0E0EC53FE4F877021E0B1
:1012100030E001C0220F8A95EAF78281822B828317
:1012200008950E2E000CFF0BE454FE4FF8CF909162
:101230001601913021F49091430597FD0CC0EEEB1F
:10124000F1E09191891302C0DF011E9251E0E43C6C
:10125000F507B9F70895E82FE695E695E695803FFE
:10126000C8F7F0E0EC53FE4F877021E030E0A901B1
:1012700002C0440F551F8A95E2F7CA0180959281FA
:101280008923828308958091150108952FB7F894DA
:101290008091FC019091FD01A091FE01B091FF01B0
:1012A0002FBF08958091210590912205892B91F0FF
:1012B0000E9446092091630430916404AC01421BF2
:1012C000530B9A0181E0409121055091220524178A
:1012D000350708F480E00895CF93DF93C091670449
:1012E00080916A04C82B809165048115F9F0809182
:1012F000210590912205892B29F00E945209811124
:101300000E944204D091650480911601813021F43D
:101310008091430587FD14C086E02EEB31E090E01C
:10132000815090F491110E944204CD2B80914C0386
:1013300080958C2390914B03892BDF91CF91089559
:101340008EE126EC31E0EBCFF90141919F0141158F
:1013500039F39F5FE5CF962F2091440522FF10C0FF
:10136000682F660F660F660F692B60936B040E94EF
:1013700045030E94460990936D0480936C04089580
:101380000E944503089590916504292F2823211573
:1013900061F08095892380936504811539F00E945E
:1013A00046098093630490936404089580E090E07C
:1013B000F8CFCF93C82F8091440582FF0CC0809155
:1013C00065048C1741F00E94460990936404809351
:1013D0006304C0936504CF9108950E94460920914B
:1013E0003D0330913E03232B211521F080939F0272
:1013F0009093A00220913F0330914003232B2115AD
:1014000021F080939D0290939E02E091D202F09190
:10141000D302309749F082E080933B030680F78146
:10142000E02D8BE393E009950895611509F44BC015
:10143000E3E3E80FE33150F4F0E0E053FB4C0C94AD
:10144000FA330E94F307819580933E030E94ED09D1
:1014500008950E94F307F8CF0E94F30781958093C7
:101460003D03F4CF0E94F307FACF0E944C0880930B
:101470003F03ECCF0E944C088195F9CF0E944C08A5
:10148000819580934003E2CF0E944C08FACF815DA2
:10149000990B21E030E001C0220F8A95EAF7809194
:1014A0003C03822B80933C03D1CF80913A0381602F
:1014B00080933A03CBCF80913A038260F9CF809139
:1014C0003A038460F5CF40913D038D3C59F48091FF
:1014D0003E0387FF0DC010923E03411559F4109250
:1014E000390308C08E3C81F480913E0318169CF3AA
:1014F000411581F080913F0390914003892B811128
:10150000A5CF10923803A2CF8F3C41F447FFF0CF14
:1015100010923D0380913E038115E0CF803D19F488
:101520001416B4F3E5CF90913F03893D29F41916C1
:10153000FCF610923F03DCCF8A3D19F497FFD8CF19
:10154000F8CF909140038B3D29F497FFD1CF1092B3
:101550004003CECF8C3D19F41916CCF3C9CF9FE2CE
:10156000980F983090F4815D990B21E030E0B9013B
:1015700002C0660F771F8A95E2F7CB0180959091A4
:101580003C03892380933C03B3CF8D3D31F480919C
:101590003A038E7F80933A03ABCF8E3D21F4809146
:1015A0003A038D7FF7CF8F3D09F0A2CF80913A03A8
:1015B0008B7FF0CF2FB7F8946091FC017091FD0103
:1015C0008091FE019091FF012FBF0895CF92DF928D
:1015D000EF92FF92CF93DF93D82FC92FC090CA0309
:1015E000D090CB03E090CC03F090CD030E94DA0AB8
:1015F0006C197D098E099F09643F71408105910531
:1016000018F10E94DA0A6B017C0182E390E0A0E00D
:10161000B0E0C0928B02D0928C02E0928D02F092E8
:101620008E028093870290938802A0938902B093E0
:101630008A02D093C803C093C903DF91CF91FF9072
:10164000EF90DF90CF90089584EF91E0A0E0B0E0BC
:10165000E0CF87E797E7909301088093000888E13F
:101660009AE00FB6F894A895809360000FBE90930F
:101670006000FFCFFC019B018091F2019091F3018A
:101680008617970740F0672B29F48091E8008E7742
:101690008093E800C90140E0009741F4411106C081
:1016A0008091E80082FF2FC080E008952091AB0276
:1016B0002115A9F12530A9F12091E80023FD2DC0C5
:1016C0002091E80022FDECCF2091E80020FFE4CF3C
:1016D0003091F3002091F200009719F02830310585
:1016E00058F041E02830310509F040E02091E80051
:1016F0002E772093E800D0CF41914093F1000197DD
:101700002F5F3F4FE9CF8091AB02811541F08530CB
:1017100041F08091E80083FFC3CF81E0089582E02B
:10172000089583E008958091EC0187FF13C08091B4
:10173000E80082FF06C08091E8008B778093E80084
:1017400008958091AB028111F2CF08958091AB0290
:101750008115D9F38091E80080FFF8CF8091E800EF
:101760008E77ECCF2091E4003091E50095E6A90159
:101770002091EC00822F817020FF06C08091E8004C
:1017800080FF06C080E008952091E80022FD1AC085
:101790008091AB02811589F0853089F08091EB0052
:1017A00085FD0FC02091E4003091E50042175307FA
:1017B000F9F29A95E1F684E0089582E0089583E0D5
:1017C000089581E00895E8EDF0E080818E7F8083C8
:1017D0001092E2001092DA001092E100A0EEB0E068
:1017E0008C9181608C9380818F77808319BCA7ED69
:1017F000B0E08C918E7F8C9380818F7E808310925D
:10180000EB010895982F9093E900891771F070917A
:10181000EC002091ED005091F00021FD09C09F5F88
:10182000973089F78093E9000895762F242F50E0B0
:101830003091EB003E7F3093EB003091ED003D7F27
:101840003093ED003091EB0031603093EB007093FA
:10185000EC002093ED005093F0002091EE0027FD66
:10186000DECF0895A0E0B0E0E8E3FCE00C94113492
:10187000C8EDD0E088818F7E8883E7EDF0E080813D
:101880008160808384E082BF81E08093EB01888166
:101890008E7F888302EE10E0F80110821092DA0049
:1018A00081EEC82ED12CF601108288818F77888333
:1018B00088818068888388818F7D888319BC109295
:1018C000AB021092EA01109282021092E90190EEAE
:1018D000E92EF12CF70180818B7F808388818160E4
:1018E000888342E060E080E00E94020CF601808183
:1018F0008E7F8083F8018081816080838081886011
:101900008083F70180818E7F8083888180618883D6
:10191000CDB7DEB7E8E00C942D349C0121153105DC
:1019200009F408958FE99FE00197F1F700C00000E6
:1019300021503109F3CF0F931F93CF93DF938B0186
:10194000EA019091AB02943059F58093E9008FEF52
:101950009091E80095FD06C095ED9A95F1F700008D
:101960008A95B1F78091E80085FF1AC00E94B20BFA
:10197000811111C08091E80085FD06C08091E800CA
:101980008E778093E800F2CFF80181918F018093E8
:10199000F100219779F78091E8008E778093E80035
:1019A000DF91CF911F910F910895CF93DF93D82F9F
:1019B000C92F48E050E0682F792F81E00E949B0CEE
:1019C00088E0ED2FFC2FA4EFB1E001900D928A95F5
:1019D000E1F7DF91CF910895BC0140E250E084E04F
:1019E0000E949B0C0895BC0146E050E084E00E94F8
:1019F0009B0C0895BC0143E050E084E00E949B0CE6
:101A000008959091440592FB222720F9281779F038
:101A100080FB92F9909344056091430570914405D1
:101A200084E090E00E94B03482E00E94180408959F
:101A30001F93CF93DF93C62F122F632F982F942BD2
:101A40009430C0F4C330B0F498E0C99FE001112491
:101A5000C40FD11DC40FD11D98E1899FC00DD11DA8
:101A60001124CE0188960E949234612FCE0189966E
:101A70000E949234DF91CF911F9108950F931F938D
:101A8000CF93DF93962F142F022F632F843018F5F6
:101A9000923008F528E0829FE001112434E0939F02
:101AA000C0011124C80FD91FC857DF4F81E0842718
:101AB0009E01280F311D280F311DC9010E9492344B
:101AC00081E090E0111102C083E090E0602F8C0F64
:101AD0009D1F0E949234DF91CF911F910F91089525
:101AE000CF93DF93CCEBD1E060E0CE010E94923443
:101AF0002196C11584E0D807B9F7DF91CF910895F9
:101B0000CF93C82F62EF811101C06FEF84E290E0A4
:101B10000E9492346FEDC11101C06FEF85E290E039
:101B20000E9492346FEAC11101C06FEF86E290E02B
:101B30000E949234CF9108950F931F93CF93DF9318
:101B40000FE115E0C8EAD0E0CE010E947434F8013C
:101B500061918F01681719F0CE010E94923421968D
:101B6000CC3CD10589F7DF91CF911F910F9108955A
:101B70000F931F93CF93DF930FE115E0C8EAD0E0F6
:101B8000CE010E947434F80181938F012196CC3CE0
:101B9000D105B1F7CDEAD3E0FE018591949100978C
:101BA00011F0FC0109952C96F4E0C93ADF07A1F782
:101BB000DF91CF911F910F9108950F931F93CF93B2
:101BC000DF93982F942B943018F5633008F528E0B4
:101BD000629FE0011124C40FD11DC40FD11D38E153
:101BE000839FC00DD11D1124CE0188960E947434AC
:101BF000082F10E0102F0027CE0189960E94743420
:101C00009801282BC901DF91CF911F910F91089561
:101C100080E090E0F8CFFF920F931F93CF93DF9374
:101C2000F42E843070F5623060F528E0829FE00188
:101C3000112434E0639FB0011124C60FD71FC85789
:101C4000DF4F81E084279E01280F311D280F311DB1
:101C5000C9010E947434082F10E0102F002781E082
:101C600090E0F11002C083E090E08C0F9D1F0E9475
:101C700074349801282BC901CDB7DEB7E5E00C9488
:101C8000303480E090E0F8CF2091AE023091AF0286
:101C9000232BD9F4703F39F4603FB9F48091AC0242
:101CA0009091AD020895733048F4982F962B94309C
:101CB00060F4462F672F0E94DD0D08957D3F41F4AB
:101CC000623018F441E0843050F080E090E00895F4
:101CD0007C3FD9F76230C8F78430B8F740E00E9403
:101CE0000B0E0895A0E0B0E0E8E7FEE00C9412349B
:101CF0007C0100911E0580911D05082BC3E0D0E0FA
:101D000010E0C8010C2E02C0959587950A94E2F761
:101D100080FD09C02197A8F7D12C8D2DCDB7DEB756
:101D2000E7E00C942E34DC2EB7018C2F0E94440E79
:101D30000E943D05019771F3F0CFCF93DF93D82F29
:101D4000C92F0E94720E6D2F7C2F0E94440E0E949C
:101D50003D05DF91CF910895FC018481811571F0DB
:101D600087819085009729F00E943D050E941B0302
:101D70000895808191810E949D0EF8CF80E00895A2
:101D80001F93CF93DF93182FD92F611599F0411529
:101D900089F00E94720EC82F682F812F9D2F0E94FC
:101DA000B703612F7D2F8C2F0E94440EDF91CF91BE
:101DB0001F9108950E94D203C82FF3CFCF93DF93D2
:101DC000FC01462FC781D085209731F46581808141
:101DD00091810E94C00EEC01CE01DF91CF91089558
:101DE00084E290E00E947434823F89F485E290E0BE
:101DF0000E9474348F3D59F486E290E00E9474345E
:101E000091E08F3A09F090E0892F8170089580E089
:101E1000FCCF80911601813059F58091430587FFF1
:101E200027C00E946C098093C50140E250E062EB3C
:101E300072E084EC91E00E944734892BC1F080E28B
:101E4000E4ECF1E0A2EBB2E001900D928A95E1F7AB
:101E5000E091D202F091D302309749F086E080936E
:101E6000C4010480F581E02D84EC91E0099508958A
:101E70000E946C098093BC0148E050E064ED72E080
:101E80008CEB91E00E944734892B89F388E0ECEBDE
:101E9000F1E0A4EDB2E001900D928A95E1F7E091B6
:101EA000D202F091D302309711F30280F381E02D3A
:101EB0008CEB91E0DBCF811521F00E9434040E946D
:101EC000090F0895811539F090916A04892B809348
:101ED0006A040E94090F0895811521F00E943A04B6
:101EE0000E94090F0895811541F0809590916A0430
:101EF000892380936A040E94090F0895CF93C82F05
:101F00008115D1F08CEF8C0F813AA0F580911601EC
:101F1000813021F48091430587FD10C0EEEBF1E0A4
:101F20008191C81709F121E0E43CF207C9F78C2F31
:101F30000E94E3080E94090FCF910895EC2FE695C7
:101F4000E695E695F0E0EC53FE4F828190E04C2F51
:101F5000477021E030E002C0220F331F4A95E2F7BC
:101F600082239323892B19F38C2F0E9417090E9437
:101F7000090FDDCF80E28C0F883048F4C77081E014
:101F800001C0880FCA95EAF70E943404D3CF8BE5CD
:101F90008C0F833038F42C2F2452330BC9010E944C
:101FA0009708CACFE8E5EC0FEB3150F4F0E0EE0F04
:101FB000FF1FEC57FE4F808191810E94BD08BCCF6E
:101FC00083E38C0F833108F0B7CF61E08C2F0E9440
:101FD000150AB2CFCF93DF93EC01805E9109089789
:101FE00020F062E67FE0209711F46BE57FE0CE0100
:101FF0000E9411038C2F0E947E0FDF91CF910895D4
:102000009C01611529F080916A04826080936A04C2
:10201000C90190528115904308F43327C9010E94E9
:10202000EA0F0895811581F19CEF980F913A28F4F9
:102030000E9417090E94090F089590E2980F9830A6
:1020400050F4877091E001C0990F8A95EAF7892FC3
:102050000E943A04EFCF9BE5980F933028F480E07C
:1020600090E00E949708089598E5980F9B3128F416
:1020700080E090E00E94BD08089593E3980F9331AB
:1020800018F460E00E94150A0895CF93DF93EC01E5
:102090000E941210CE01805E9109089720F063E73C
:1020A0007FE0209711F46CE67FE0CE010E941103DF
:1020B000DF91CF9108950F931F93CF93C82F8B017A
:1020C0000E947E0F0115110539F48C2F0E94121009
:1020D000CF911F910F9108958FE99FE00197F1F73C
:1020E00000C0000001501109EDCF60913F057091D3
:1020F0004005893321F060913D0570913E050E94B5
:102100005B1008951092670480911601813039F5B3
:102110008091430587FF23C0E6ECF1E08EE1DF010B
:102120001D928A95E9F780E090E00E94970880E090
:1021300090E00E94BD0810926A040E94090F86E098
:10214000EBE3F3E0DF011D928A95E9F71092390382
:102150001092380310923A030E94ED090895EEEBB5
:10216000F1E086E0DCCF0E9482102FEF84E39CE058
:10217000215080409040E1F700C0000088E19AE0E3
:102180000FB6F894A895809360000FBE90936000FE
:10219000FFCFCF93DF93FB018FEF9FEF44305105CB
:1021A000B8F0D081C1810E948210D0934305C370E2
:1021B000809144058C7FC82BC093440560914305F2
:1021C0007091440584E090E00E94B03480E090E09B
:1021D000DF91CF910895EFE1F5E0128E138E8FEA33
:1021E00090E09183808325E0248F88E893E19383B6
:1021F00082838AE090E09583848344E150E05783B2
:10220000468348E050E051874087938782876EE19C
:1022100070E0758764879787868780E590E0918B6B
:10222000808B538B428B48E250E0558B448B42E3CA
:1022300050E0578B468B48EC50E0518F408F158E05
:10224000178E168E91A380A322A30E949C0D0E943C
:102250008210109244051092430580E084608093C0
:10226000440560E074E084E090E00E94B0340E9495
:10227000B80D0895AAE2B0E0E0E4F1E10C94163460
:102280008CEE91E0FC0101962091F100208321E089
:10229000843F9207B9F78091ED01893009F45AC063
:1022A000C8F4823009F4B7C0833009F486C08130A5
:1022B00091F18091E80083FFEBC08091EC01909157
:1022C000ED019A3008F0E4C0E92FF0E0ED51FB4C4D
:1022D0000C94FA338A3009F48DC08B3051F7809119
:1022E000EC01813231F78091F0019091F101892B5D
:1022F00001F78091E800877F8093E8000E94930BAC
:1023000081E09091EE01911101C080E0809316016F
:102310000E948210CECF8091EC01813A51F68091DB
:10232000E800877F8093E8008091F0019091F101AF
:10233000892B61F060E080E090E070E00E943A0B51
:102340008091E8008B778093E800B3CF68E084EF5A
:1023500091E0F3CF8091EC01813209F0AACF809116
:10236000F0019091F1018D7F892B09F0A2CF80912E
:10237000E800877F8093E8008091E80082FF18C022
:102380009091F3008091F200029731F48091F10076
:10239000813011F0863021F48091F1008093150195
:1023A0008091E8008B778093E8000E94930B81CFA7
:1023B0008091AB028111E0CF7CCF8091EC01813A1A
:1023C00009F077CF8091F0019091F101892B09F00C
:1023D00070CF8091E800877F8093E8008091E800CB
:1023E00080FFFCCF809116018093F1008091E8007E
:1023F0008E77D9CF8091EC01813209F05ACF80914C
:10240000E800877F8093E8000E94930B8091EF01A2
:10241000809314014ECF8091EC01813A09F049CFAD
:102420008091E800877F8093E8008091E80080FF3A
:10243000FCCF80911401D8CF803889F0823841F5E3
:102440008091F0018F70873018F58093E9008091BA
:10245000EB0085FB882780F91092E90006C0809187
:102460008202880F9091E901892B9091E800977F73
:102470009093E8008093F1001092F1008091E800C1
:102480008E7723C0811116C08091EE01813011F149
:102490008091E80083FF0AC08091E800877F8093E5
:1024A000E8008091EB0080628093EB00AA96E3E065
:1024B0000C943234823061F78091EE01811589F0FD
:1024C0001092E9008091E800877F8093E8000E94E5
:1024D000930BDECF81E0933009F080E0809382029D
:1024E000EFCF8091F0018F702FEF280F263080F60C
:1024F0008093E9002091EB0020FFE2CF933031F48C
:102500008091EB0080628093EB00DACF9091EB003A
:1025100090619093EB0021E030E0A90102C0440FEC
:10252000551F8A95E2F74093EA001092EA008091E5
:10253000EB008860E8CF8111ABCF1091EE011F77DF
:102540008091E3008078812B8093E3008091E80004
:10255000877F8093E8000E94930B8091E80080FFC2
:10256000FCCF8091E30080688093E30083E0111149
:1025700001C082E08093AB028BCF8058823008F09C
:1025800087CF8091EE019091EF018C3D53E095074C
:1025900099F583E08A838AE289834FB7F894DE0154
:1025A000139620E03EE051E2E32FF0E05093570015
:1025B000849120FF03C082958F703F5F8F708A30B7
:1025C000C8F0895C90E08D939D932F5F243161F773
:1025D0004FBF8091E800877F8093E8006AE270E057
:1025E000CE0101960E943A0B8091E8008B77809390
:1025F000E8004ECF805DE6CF292F33272330310509
:1026000009F44EC078F52130310509F488C08BE516
:1026100090E0E8E7F2E02230310509F039CF20916F
:10262000E800277F2093E8002091F2013091F30128
:102630008217930708F49C0140E02115310509F049
:1026400073C0411171C08091E80082FDCDCF8091AF
:10265000AB02811549F2853039F28091E80083FFA1
:10266000F2CFC2CF8091F0019091F101213231057A
:1026700009F446C02232310509F00ACF83309105B2
:1026800008F006CFFC01EE0FFF1FE95DFE4F019041
:10269000F081E02D8C5D9E4FDC018C9190E010C0AC
:1026A0009C013327823021F12330310568F4232B3C
:1026B000B9F4EFE1F3E0E4918E2F90E0EFE1F3E085
:1026C000009709F4E5CEABCF2330310509F0E0CE19
:1026D000E5EEF2E0E4918E2F90E0E5EEF2E0F0CF4F
:1026E000E1E1F3E0E4918E2F90E0E1E1F3E0E8CF67
:1026F000E3E0F3E0E4918E2F90E0E3E0F3E0E0CF5D
:102700008330910508F0C4CEFC01EE0FFF1FE35D9E
:10271000FE4F0190F081E02D89E090E080CF82E1D2
:1027200090E0E3EDF2E07BCF8091AB02811509F4FC
:102730005BCF853009F458CF8091E80083FD54CFFA
:102740008091E80082FD7FCF8091E80080FF75CF07
:102750009091F3008091F2002115310519F0883035
:10276000910550F041E0089709F040E08091E800C1
:102770008E778093E80061CF44914093F1003196C9
:10278000215031090196E8CF803809F081CE80913F
:10279000E800877F8093E8008091EA018093F10050
:1027A0006DCE811175CE1091EE01123008F070CE11
:1027B0008091E800877F8093E8001093EA010E94EF
:1027C000930B1115F9F084E08093AB0242E061ECC9
:1027D00081E00E94020C42E261EC84E00E94020C63
:1027E00042E261EC82E00E94020C42E260EC83E093
:1027F0000E94020C8091AB02843051F482E08093FD
:10280000170146CE8091E30087FDDDCF81E0DCCF6C
:1028100081E0F5CF80911901877F80931901909114
:102820006A049D7F90936A0484FF06C08F7E809324
:10283000190182E00E9434048091190185FF06C0CD
:102840008F7D8093190180E20E9434040E94090F59
:102850000895CF92DF92FF920F931F93CF93DF9350
:10286000EC018B01F42E8091190182FF65C0C090AC
:102870005604D0905704CC16DD0619F0209709F0C5
:102880005BC0809119018B7F80931901C1E081FDAC
:1028900010C080915404909155049801281B390B65
:1028A000C1E080910E0190910F012817390708F4BB
:1028B000C0E080911901C0FB81F9809319016C2F50
:1028C000C6010E9461078091670481FF08C0809162
:1028D000190180618093190182E00E943A0480917D
:1028E000670485FF08C080911901806280931901F7
:1028F00080E20E943A046C2FC6010E940010F1147D
:1029000031F080913A0585FF02C086FF29C0809191
:102910003D0590913E050E948D0C8091560490914A
:1029200057049C0130522115304308F499270E9426
:1029300045100E940A1410C0CE0190528115904398
:10294000B8F4CE0199270E944510809156049091C9
:102950005704C817D90769F310935504009354041A
:10296000DF91CF911F910F91FF90DF90CF9008954D
:10297000CE01E9CFCF93DF93EC014A855B856E856D
:102980007F850E9485089B81909580916A048923A8
:1029900080936A048C810E943A040E94090F86E0A9
:1029A000FE0111928A95E9F7DF91CF910895CF93B7
:1029B000DF93EC018D8181FD14C082608D83809155
:1029C0006A049B81892B80936A048C810E94340461
:1029D0000E94090F488559856E857F85CE010E942A
:1029E000850810925104109250048D8180FD03C01F
:1029F000CE010E94BA14DF91CF9108951F93CF9317
:102A0000DF93182FA091C603B091C703109709F464
:102A10004AC01092C9031092C80310924C0310923E
:102A20004B031696CD91DC911797CE019A9581159F
:102A30009F4108F4D07ED1E0C11101C0D0E01996C9
:102A4000ED91FC911A97309731F01B966D917C9126
:102A500080E00995D823D11539F08CEF8C0F813A9D
:102A600030F58C2F0E9417091115A9F0E091C603CB
:102A7000F091C703808584FD0EC08091C503811548
:102A800051F0808191819C01215031092F333E47C3
:102A900010F40E94E60A0E94090F1092C7031092D8
:102AA000C6031092C503DF91CF911F9108950E9434
:102AB000090F8C2F0E941210D7CFAEE1B0E0E3E6F1
:102AC000F5E10C940A34C090A902D090AA0281E0EA
:102AD00090E09093AA028093A90233E8E32E33E0BA
:102AE000F32EA12CB12C10E0350100E015C0F4014B
:102AF00025913491452D602F812F0E94180D22E0E1
:102B0000820E911C539434E05312F1CF84E0680E8E
:102B1000711C0F5F033049F0C301880F991FDC015E
:102B2000AD5DBC4F4D01512CE2CFF70125913491A1
:102B300041E060E0812F0E943E0DF7013296259121
:102B4000349140E060E0812F0E943E0DF701349601
:102B50002591349141E061E0812F0E943E0DF70103
:102B600036962591349140E061E0812F0E943E0D20
:102B7000B8E0EB0EF11C1F5F2CE0A20EB11C14306C
:102B800009F0B2CF0E94EB101A8219821C821B82BC
:102B90001E821D8218861F8288EC90E09A878987A2
:102BA0000CEC10E04AE050E0B801CE0101960E9422
:102BB000B634065F1F4F0C3131E0130799F7FE0161
:102BC0003B968AE0DF011D928A95E9F77F014AE092
:102BD00050E0B801C7010E94B634065F1F4F0C36A3
:102BE000B1E01B07A1F7FE01759689E0DF011D9298
:102BF0008A95E9F78FEF9FEF9A8F898F87E08E8F05
:102C00007F014AE050E0B801C7010E94B634065F78
:102C10001F4F0C3BB1E01B07A1F7D092AA02C09254
:102C2000A9026E96EFE00C94263480E00E94800D9D
:102C300060E087E290E00E9492340E945D150E945D
:102C4000700D81E00E94800D0895AAE0B0E0EBE2F3
:102C5000F6E10C941134E6E2F2E080E5DF011D922A
:102C60008A95E9F7EEE6F4E088E3DF011D928A95A4
:102C7000E9F786E2C82E82E0D82E7F010CE111E050
:102C8000F701D182C0824AE050E0B801CE0101963E
:102C90000E94643488E0FE013196D60101900D92C5
:102CA0008A95E1F789859A85D70113969C938E932F
:102CB0001297BAE0CB0ED11CE7E0EE0EF11C065FD6
:102CC0001F4F0C36F1E01F07D9F62A96E8E00C9466
:102CD0002D34AAE0B0E0EFE6F6E10C940F340DE4F9
:102CE00013E08CE6E82EFF24F39497E0B92E25E25A
:102CF000C22E22E0D22EAA24A3944AE050E0B701CB
:102D0000CE0101960E946434F8013896DF018B2DC4
:102D10001D928A95E9F789819A81D80111969C9331
:102D20008E938F8112968C9312978D8113968C932C
:102D30001397888514968C931497898515968C9390
:102D400015978B819C8117969C938E9316978A85F5
:102D500087FD04C01E96DC92CE921D9780FF02C0B4
:102D6000F801A08681FF07C0D80118969C9118979A
:102D7000926018969C9382FF04C0F801908594603D
:102D8000908783FF07C0D80118969C911897986088
:102D900018969C9384FF04C0F801908590619087F9
:102DA00085FF07C0D80118968C91189780621896F5
:102DB0008C93BAE0EB0EF11C015F1F4FECEBEE16AB
:102DC000E1E0FE0609F099CF2A96EAE00C942B3454
:102DD000282FCB01283070F44AE0249F9001112461
:102DE000B90164537F4F4AE050E00E94643480E0B0
:102DF00090E008958FEF9FEF0895AAE0B0E0E3E040
:102E0000F7E10C9417349C0197558115914070F4AB
:102E1000BE016F5F7F4F822F0E94E816892B31F42D
:102E200089859A852A96E2E00C943334809137059F
:102E300090913805F7CFA0E0B0E0E1E2F7E10C9423
:102E40001234162FD72FC42FD22E8115A9F04093FC
:102E500061040E9446099093E8018093E701C770DE
:102E600081E001C0880FCA95EAF70E945B0FCDB7D9
:102E7000DEB7E7E00C942E3490916104491338C01A
:102E8000E090E701F090E8010E9446099C012E19AC
:102E90003F097901812F9D2F0E94FD16E816F90642
:102EA00038F5D0E2DD0DCD15A1F0C77011E0812F0E
:102EB00001C0880FCA95EAF70E946C0FD83048F419
:102EC0008D2D877001C0110F8A95EAF7812F0E941E
:102ED0005B0F802F0E947510D83048F62D2D27707B
:102EE00081E001C0880F2A95EAF70E946C0FBFCFDE
:102EF000C77081E001C0880FCA95EAF7F6CF9C0140
:102F0000CB01DA01F901329645915491A417B50726
:102F100048F0F9013496659174910E94543480E030
:102F200090E008958FEF9FEF08959C01DA010296DB
:102F3000FC0145915491FC0185919491A817B90722
:102F400058F0F9013496859194910E9454340E946E
:102F50009C0D80E090E008958FEF9FEF0895A3E02F
:102F6000B0E0E5EBF7E10C940A34FE01319683E022
:102F7000DF011D928A95E9F787E3E82E81E0F82EBC
:102F80008F019AE3C92E91E0D92E3F01AA24A39480
:102F9000B12C3EE3832E31E0932EF70181917F0126
:102FA0008F3F09F43EC0F894E82FE295EF70F0E00F
:102FB00021A18F70A50102C0440F551F8A95E2F729
:102FC000CA01922F982B91A392A18095892382A365
:102FD000789400C0EAE3F1E031E0512C21912F3FD9
:102FE00079F0A22FA295AF70A05EB0E08C9190E036
:102FF0002F7002C0959587952A95E2F780FF36C01D
:1030000080E0582A330F8E169F0641F7F701829110
:103010008F3F11F00E94420650EA5A95F1F7D8010D
:103020005C920F5F1F4FCE14DF0409F0B6CF43E070
:1030300050E0B3018EE792E00E944734892BC1F043
:1030400089819A81AB8180937E0290937F02A093C5
:10305000800281E08093E6010E9446099093E50199
:103060008093E4012396EFE00C942634832FC9CF9C
:103070008091E6018115B1F30091E4011091E50121
:103080000E944609801B910B059760F343E050E0D6
:103090006EE772E086EA92E00E944734892B61F085
:1030A00080917E0290917F02A09180028093A6027F
:1030B0009093A702A093A8021092E601D3CFA0E0BC
:1030C000B0E0E5E6F8E10C941034EC01888181155C
:1030D000F1F0813009F042C08981813029F48A8180
:1030E00023960E947510F2CF823029F48A812396AC
:1030F0000E947E0FEBCF833029F48A8123960E94B1
:103100001210E4CF843041F022968111DFCFCDB789
:10311000DEB7E9E00C942C348A81239620E030E07D
:103120009AE0682F6053770BAB016A30710560F04D
:103130002115310551F3EFE9FFE03197F1F700C0B8
:10314000000021503109F4CF929FB001939F700D80
:1031500011249A01260F371F8991E3CFE82FF0E061
:10316000E850FE4FB490282F26952695269530E0FE
:10317000F901E851FE4FE4908770F12C082E02C04F
:10318000F594E7940A94E2F7E0FAEE24FF24E0F8DD
:10319000F901E852FE4FC490D12C082E02C0D594FC
:1031A000C7940A94E2F7C0FACC24DD24C0F8F901F0
:1031B000E853FE4F049110E002C0159507958A95DB
:1031C000E2F701701127E114F10419F081EE0E9479
:1031D0007E0FC114D10419F086EE0E947E0F60E0CC
:1031E00070E08B2D0E945B10C114D10419F086EEA3
:1031F0000E941210E114F10419F081EE0E941210E5
:103200000115110519F08CE20E94751021965ECF10
:10321000AFE0B0E0EEE0F9E10C9407347C01DC01B2
:1032200014968C91811509F468C161E0C7010E9470
:10323000DE0E8C01F7018581811531F180915004FA
:1032400090915104009701F108171907E9F0FC016A
:10325000FF27887F9927892B09F067C064E0EE0F6C
:10326000FF1F6A95E1F7E053FC4F858184608583F9
:1032700011830083CF010E94D71410926A0461E089
:10328000C7010E94DE0E8C01D70115968C91811525
:1032900009F4BEC0C80197578038910508F0EAC00C
:1032A000D02EB0E10B1708F017C18FEF93E00E940A
:1032B0007434811111C10CEB11E0D11039C054E00C
:1032C000652E9E012F5F3F4F5901D501E62D1D92BE
:1032D000EA95E9F74801FFEF8F1A9F0AC8010E949B
:1032E00074348983811509F4F7C0813009F08AC0EC
:1032F000680122E0C20ED11CC4010E947434782EF1
:103300008A83811509F4E8C08FEF870D8330F0F4CC
:10331000C6010E9474348B83811519F0C5010E9487
:103320005F180D5F1F4F680171C0E0E0F0E09DCFB6
:103330000115E4E01E0709F4CFC0C8010E947434EF
:103340000F5F1F4F8111F4CFDA94B7CF8BEF870D4A
:10335000833060F5480143E0840E911CC6010E9451
:1033600074348B83811509F450C00C5F1F4F6801C2
:10337000C4010E9474348C83811509F447C08B8189
:103380009C818130AFEF9A0710F0982F8827B6E024
:103390007B1631F0E7E07E1631F00E94A12836C09E
:1033A0000E94592833C00E947D2830C0F4E07F126B
:1033B0002DC0C6010E947434982E680124E0C20E0C
:1033C000D11CC80103960E947434282F911409F46B
:1033D00083C0811509F480C02150330B4FEF429F09
:1033E000C001439F900D1124492D4150550B840F6E
:1033F000951F019758F0AFE9BFE01197F1F700C0B2
:103400000000F7CFC5010E945F18640186015DCFFF
:103410006801E7E5DE1AC114F1E0DF0658F561E462
:1034200073E08C2D0E94E816892B21F5C60134E04B
:10343000880F991F3A95E1F7FC01E053FC4F228178
:103440002130A1F52091410330914203232B91F0CB
:103450002091430330914403232B61F020914503D5
:10346000309146034091470350914803242B352B5C
:10347000232B21F1D70115962C90211409F441C07A
:103480000E35BCE71B0729F10F35ECE71E0741F0AD
:103490000D35FCE71F07A9F5809118018115C9F0CA
:1034A0001092180180E00E94FE1416C0223011F71D
:1034B0002091450330914603232BE1F2FC01EB52AE
:1034C000FC4F20812E7F208380539C4F0E94D71475
:1034D000D1CF81E08093180180916B0487708115B2
:1034E00061F0D70115968C91811539F080914405D2
:1034F00082FF03C082E00E9418042F96E2E10C9440
:10350000233480911801811148C0C8019755811555
:10351000914008F0DEC05801F8EFAF22BB24A1149F
:10352000B104D1F6F801FF2794E0EE0FFF1F9A9542
:10353000E1F79F0120533C4F6901D70115968C910B
:10354000EB52FC4F908180FB90F99083811509F438
:10355000FEC10E9446099093530480935204F601E1
:1035600082818F5F828380916A0490916704892BA6
:10357000838380916504848346815781668577853E
:10358000C6010E948508D60115968C9181FF5801CD
:10359000B0925104A09250049CC0280130EE431A0E
:1035A00051083090660480916704382A8091650440
:1035B000382A48E04416510408F05EC0980127708C
:1035C000332781E090E001C0880F2A95EAF72114A3
:1035D00009F44FC0382AD7018D919C910E94D203E3
:1035E00021E030E0F90102C0EE0FFF1F8A95E2F7FB
:1035F000FF87EE872091C6033091C703398728875C
:103600004091CE035091CF035D874C872DE4C22EAD
:1036100023E0D22EA12CB12C311005C0D601129678
:103620008C9181111BC0F601838190E02E853F852E
:1036300082239323892B91F08085982F9770911185
:1036400001C087E038E04316510408F0A8C02114F7
:1036500009F4A1C0869581708111A6C0EFEFAE1A62
:10366000BE0AFFE0CF0ED11C28E0A216B104A1F6DD
:103670001CC080953822AFCF21107AC08091CE0334
:103680009091CF030817190781F41092CF0310927D
:10369000CE031092CA031092CB031092CC03109267
:1036A000CD031092C9031092C8038091C603909174
:1036B000C703009709F429CF38E04316510408F0F6
:1036C00030C1632D0E94C407811103C081E00E94B4
:1036D000FE1480913A0580FFAAC10E9446093C0170
:1036E000F7018581811509F4B4C18091190182FF28
:1036F00006C040E0B30180E090E00E94291404314C
:10370000FCE71F0709F4A1C105312CE7120709F4F2
:103710003BC103313CE7130709F47CC1C801905257
:103720008115904308F03AC1109257041092560444
:10373000F7019581911509F40DC310926104980168
:1037400030572332310508F005C384E090E00E9431
:103750007C349093440580934305F801E150F04791
:10376000E232F10508F03CC2E351FB4C0C94FA3311
:103770001093CF030093CE030E94DA0A6093CA032A
:103780007093CB038093CC039093CD031092C90325
:103790001092C80320CF82FB882780F95DCF2114C7
:1037A00009F45CCF80FF5ACFD6018D909C9008150C
:1037B000190519F4211409F451CFE885F985EC15A0
:1037C000FD0509F44BCFD6011D96ED91FC91309784
:1037D00021F08081811509F441CF632DC6010E943B
:1037E000C407811509F43ACF81E00815190509F0DD
:1037F00080E082218F838114910441F0811106C001
:10380000EC85FD858E169F0609F028CF80E00E948A
:10381000FE14D092C703C092C60381E08093C50313
:103820008FE08A9DF0018B9DF00D1124E35BFC4F2E
:10383000858180934C032F8121110EC08114910446
:1038400059F0808191819C0124503109213A310540
:1038500008F049C00E9417098FE08A9DF0018B9DF6
:10386000F00D1124E35BFC4FC680D780C6019A950A
:1038700081159F4110F440EED42299249394C601FF
:1038800001978F339E4708F0912C8FE08A9DD001DD
:103890008B9DB00D1124A35BBC4F1996ED91FC914B
:1038A0001A97309731F01B966D917C9181E00995C4
:1038B00098229114A9F08FE08A9DF0018B9DF00D64
:1038C0001124E35BFC4F868197810E94E70280937D
:1038D0004B0388E04816510448F4C6010E94E60AEA
:1038E0000E94090F0BC00E941210B6CFC6010497A8
:1038F000813A910550F48C2D0E94E308BF81B115E7
:1039000009F403CE0E94090FE7CD0E94090FAFE32F
:10391000BCE91197F1F700C000008C2D0E947E0FCA
:10392000EDCFDC012D913C910217130741F42110DA
:1039300009C01092C50380E00E94FE14E6CD211458
:1039400009F4E3CDFC01808585FDDFCDF4CFF901DD
:103950004485558566857785C9010E948508D6010D
:1039600015968C9181FFB5CEC6010E94BA14809144
:103970005004909151040817190709F0AACE10922B
:10398000510410925004A5CE90911901892F8E7F79
:1039900090FF8160809319010E940A14809119019F
:1039A00080FF45C00832110508F069C00E311105CD
:1039B00008F076C0C80104974A9788F580913A05C7
:1039C00084FD2DC0D70115968C91811509F4D6C0C0
:1039D0008091650490916704892B8D7F811509F48E
:1039E00064C0109257041092560480913A0581FDEC
:1039F0005CC060E0C8010E94610760E0C8010E94ED
:103A00000010809165048D7F0E94D90982E00E9498
:103A1000180462CD80911901816080931901F7012A
:103A20008581811521F01092570410925604D70118
:103A300015968C91F801E851FC47E730F10508F044
:103A400077CEE15FFA4C0C94FA33809119018E7FA6
:103A5000A1CF809119018F7E013E110531F0053E05
:103A6000110531F4809119018F7D8093190196CF52
:103A7000C80190528115904308F090CF59CE093378
:103A8000110558F40D32110518F40B32110539F6F1
:103A900080913A0582FDC3CF95CF04361105F7CF4B
:103AA00080913A0583FDBBCF8DCF89E0F701A8E572
:103AB000B4E001900D928A95E1F710925B041092A8
:103AC0005A04809156049091570408171907C9F5B4
:103AD00020913A0525FF35C03091190131FF02C010
:103AE00026FF2FC020915404309155046301C21A5F
:103AF000D30A0E94FD16C816D90618F580916704EE
:103B000081FF08C08091190180618093190182E0D2
:103B10000E943A048091670485FF08C080911901D2
:103B200080628093190180E20E943A046091190139
:103B30006695617080915604909157040E94001020
:103B4000CBCC80916504D0906704D82AD1FADD24CB
:103B5000D0F88D7F0E94D909109357040093560422
:103B60007092550460925404DD0C6894D2F89091E0
:103B70001901997FD92AD092190148CF40E0B301A9
:103B8000C8010E942914A8CC06E221EE41EE6AE1A8
:103B90007CE70E941B17A0CC07E225EE45EE6BE107
:103BA0007CE7F7CF06E221EE40EE68E17CE7F1CF5B
:103BB00007E225EE44EE69E17CE7EBCF06E221EE79
:103BC00042EE6CE17CE7E5CF07E225EE46EE6DE1E3
:103BD0007CE7DFCF08E221E045EE6EE17CE7D9CF5C
:103BE0008091430581608093430560914305709106
:103BF000440584E090E00E94B0340E9482106CCCB6
:103C000080914405886080934405EFCF80914305FF
:103C10008260E9CF809143058460E5CF80914305C0
:103C20008860E1CF809144058160EDCF80914405AB
:103C30008260E9CF809143058061D5CF80914305B3
:103C40008062D1CF809143058064CDCF0E948210E5
:103C5000809143058068C7CF809143058C60C3CFB6
:103C6000809144058360CFCF809143058E7FBBCF89
:103C700080914405877FC7CF809143058D7FB3CF67
:103C8000809143058B7FAFCF80914305877FABCF7A
:103C9000809144058E7FB7CF809144058D7FB3CF4F
:103CA000809143058F7E9FCF809143058F7D9BCF71
:103CB000809143058F7B97CF0E94821080914305AE
:103CC0008F7791CF80914305837F8DCF809144057D
:103CD0008C7F99CF80914305992782FF939590FB24
:103CE00082F990FB83F97FCF80914405982F9095BE
:103CF00090FB80F990FB81F986CF90914305892F45
:103D00008F7B96FF80646FCF0E9482109091430555
:103D1000892F97FB87F9805866CF61E08EE090E0AD
:103D20000E94923462CF60E0F9CF90914305892FD1
:103D30008F7E94FF806157CF90914305892F8E7FAE
:103D400090FF816050CF90914405892F877F93FF2A
:103D5000886059CF0631FCE71F07C1F580916704E1
:103D60003091390530FF04C0282F2474211122C05E
:103D7000282F2A7A31FF04C0482F4171411120E0D9
:103D800032FF04C0482F4878411120E033FF03C0C0
:103D90008272811120E0911579F081E0211101C03A
:103DA00080E08093620485E3211101C089E20E94D2
:103DB000E308A8CD20E0DECF80916204811521F0D8
:103DC00085E30E9417099ECD89E2FBCF07372CE7D8
:103DD0001207F9F008373CE7130731F19801205E2C
:103DE00032452032310528F591113BC00F7181E039
:103DF00090E0AC0102C0440F551F0A95E2F78A011A
:103E0000642F83E090E00E949234802F0E943F0351
:103E100063CB81E0911551F00E94450343E062E0DD
:103E200081E00E94ED0358CB82E0F4CF0E94510361
:103E3000F5CF9115B1F00A355CE7150709F483C099
:103E400008F05AC001309CE7190709F47AC0033022
:103E5000ACE71A0709F46FC00115BCE71B0709F4AA
:103E60005DC0F70187819085009709F470C00E94BA
:103E70003D05182FD92E86E0F701DE01119601903D
:103E80000D928A95E1F7F701C580968092948FE0B4
:103E9000982280916B048770811501F18C2CC114DC
:103EA000F1F0892F807F803461F080E2810F8830CB
:103EB000A8F0892F807E803221F4123078F091149E
:103EC00069F08091440582FF09C082E00E941804D5
:103ED00080916B048770882483948111812C8D2DAF
:103EE00082958F70A82EB12C8C3008F061C0F5013E
:103EF000EA5EFA4C0C94FA330B35ECE71E0729F115
:103F000080914405002482FF0394802D0C35FCE74A
:103F10001F0709F0A6CF0E94010DA3CF0E948210B7
:103F20002FEF34E34CE0215030404040E1F700C037
:103F300000000E94290B6FEF7FEF80E090E00E946D
:103F4000B0340E94B31081E0E6CF80E0E4CF8581F9
:103F5000C080D180811569F0C6010E94720E182FB1
:103F6000682FC6010E94B703B601812F0E94440E3C
:103F70007ECFC6010E94D203182FF6CF0D2D0F70F1
:103F8000F0E1DF1610F00295007FC11409F44AC079
:103F9000011559F080E2810F883010F011113CC0FA
:103FA000802F0E9434040E94090F812F0E947E0FEF
:103FB00028E0A21AB10834E0A316B10418F40E9454
:103FC0008A08812C812F9D2D0E941B03811541F0B1
:103FD000C11409F411C2911409F405C210924705E5
:103FE0008114A9F080916B0480FD11C0F701158246
:103FF0008695869586950E944503C7010E940819FB
:1040000080916B048695869586950E94510360E0A9
:10401000C7010E94DE0E71CA80916A04802B8093D2
:104020006A04C1CF812F0E941210011509F280E2AB
:10403000810F883010F0111104C0802F0E943A04C3
:1040400006C0009580916A04802380936A040E94D0
:10405000090FAECF0D2D0F708D2D807F803211F0A6
:104060000295007F111549F0113009F473C0C11495
:1040700009F47FC09114D9F098CF8091440582FD56
:1040800012C0C11449F0011529F0802F0E94340498
:104090000E94090F80E08ACF80E00E941210011573
:1040A00009F486CFCACFC11491F1911004C0802FBA
:1040B0000E945B0F7DCF41E0941211C070906504A7
:1040C000802F8721081709F473CF0E944609909327
:1040D000640480936304702A7092650469CF8091B0
:1040E0003B05823008F464CF981262CF802F0E9483
:1040F0005B0F802F0E94C30980916604902F982344
:10410000091709F455CF802B8093660451CF911085
:1041100012C0802F0E946C0F802F0E94C3098091D3
:104120006604902F9823911509F442CF0095082337
:10413000009366043DCF80913B05823008F438CF70
:1041400051E0951235CF809167048023811509F4E1
:104150002FCFDFCF80914105C11421F0891508F4DC
:1041600027CFA5CF981608F023CF802F0E946C0F81
:104170001FCF9114D1F380913F05909140051933E1
:1041800021F080913D0590913E050E948D0C812F7C
:104190000E9412100DCF8D2D869586958370811506
:1041A00069F0813009F004CF812F9D2D9370C110EB
:1041B00002C080E090E00E94BD08FACE812F9D2DC4
:1041C0009370C11002C080E090E00E949708F0CE8A
:1041D0006C2D812F0E94150AEBCE8D2D83708111DD
:1041E00033C0C110E5CE412F429546954770440F2C
:1041F000440F812F8F70042E01C0880F0A94EAF7B4
:10420000212F207114FF07C02FE030E001C0220FE2
:104210004A95EAF720953D2D369536953370323024
:1042200071F0333051F040911D05313029F0822B6F
:1042300084230E943F03BCCE842B822BFACF822B97
:1042400090911D058927F5CFC11459F1D0FEB0CE4C
:10425000412F429546954770440F440F812F8F7030
:10426000042E01C0880F0A94EAF7212F207114FF51
:1042700007C02FE030E001C0220F4A95EAF72095F1
:104280003D2D369536953370323089F0333069F0F4
:1042900040911E05313041F0822B84230E9442035D
:1042A00087CE8230A8F684CE842B822BF7CF822B48
:1042B00090911E058927F2CF0D2D0F70C11429F0A2
:1042C000802F0E944503812FF3CE812F0E946C0F17
:1042D000802F0E9451036CCE123F71F160F4103FA9
:1042E000B9F0113F81F0C11409F478C091105DCE8E
:1042F0008D2D8F7125C0133F31F1143FA1F78091AF
:10430000440582FD2CC08D2D8F71C11411F318C08E
:1043100080914105C11461F0981608F049CE2D2D09
:104320002F7181E090E001C0880F2A95EAF7C0CF95
:10433000891508F43DCEF3CF8D2D8F71C110C9CFF3
:104340000E94450335CE80E0C11409F4A7CF81E077
:104350009D2D9F7101C0880F9A95EAF79FCF80919C
:104360003B05823048F1C114C9F090916B049770FD
:10437000943059F410926B0410926D0410926C04F6
:104380008D2D8F710E9451031ACE63E0981608F0AC
:1043900016CE8D2D8F710E94AB0911CE981640F06C
:1043A00010926B0410926D0410926C0464E0F1CFD3
:1043B00081E00E94180403CEC11431F063E08D2D1A
:1043C0008F710E94AB09F4CD81E00E94180482E055
:1043D000981608F4EDCD0E941804EACD9110CBCECA
:1043E0008D2D8F7176CF80916904809368048091C0
:1043F000670480936904F4CD40E060E089819A818C
:104400000E94C00E8A879B8700916704911429F04F
:104410001092470500936904E3CD80914505909182
:104420004605AA85BB85A817B907A1F780913C0569
:1044300083FFEECF80914705811551F38091680489
:104440000E945B0F812F0E947510809168040E946A
:104450006C0FDECFA0E0B0E0E0E3F2E20C941234A7
:1044600080912C03803108F049C080912B03811585
:1044700009F444C0C091DD0289E0D82E8091DC02AD
:104480008C17E1F1EC2EF12CDC9EE0011124FE01F1
:10449000E252FD4F84818115B1F191818091270312
:1044A000981331C090818091260398132CC0858188
:1044B000811129C0028113818091280390912903E1
:1044C000081B190B60E086E293E00E94DE0E0E945A
:1044D000FD1608171907B8F480912C038F708061BE
:1044E00080932C03CC51DD4F88818F70806188834D
:1044F00086E293E00E9408190E940E04CDB7DEB751
:10450000E7E00C942E34E7012196C770B7CFAFE0F7
:10451000B0E0EDE8F2E20C940A348C0186E0F80198
:10452000DE011A9601900D928A95E1F7D801159651
:104530006C90159714965C9086E2A82E83E0B82EB6
:1045400080912A03811118C0511499F0611409F463
:10455000CBC1C8010E94AC0E811509F4C5C189E028
:10456000F801A6E2B3E001900D928A95E1F70E946E
:104570002A22FF24F39451C0F801C0807180E280A8
:10458000F38060E086E293E00E94DE0ED0902B0381
:1045900080912803909129034701881A990A60E0C5
:1045A00086E293E0D11409F444C10E94DE0E0E9419
:1045B000FD168816990608F0F7C05114D1F28091C3
:1045C0002703D80111969C91B0902C03B0E1BB1643
:1045D00008F0A1C0F62C981325C090912603F8018D
:1045E000808198131FC020912D0330912E03878165
:1045F000908528173907B1F4611078C08B2D8F7022
:10460000806180932C0386E293E00E9408198091D8
:104610002C03D80116968C93F12C8F2D2F96EFE05A
:104620000C942634611062C0E091DD028091DC02BE
:10463000AE2F99E0A81302C099E02AC02A2F30E0DB
:104640009A9FD0011124A252BD4F11964C911197FF
:10465000741207C04C91C41204C015964C914111BC
:104660004DC1D9011196A770E5CF2E2F30E09E9F46
:10467000F0011124E252FD4F4181741206C04081C5
:10468000C41203C045814111C7CFF9013196E770CB
:104690008E13EBCF8A859B850E949D0E292F229534
:1046A0002F70903448F02A5F2F702230C8F0C80174
:1046B0000E940819FD2CB1CF9F70223038F091155F
:1046C00051F0F8019681903130F4A7CF911519F08F
:1046D000811509F4A2CF805E883008F49ECFE7CF21
:1046E000803F08F49ACF815F8330F7CF80912C030D
:1046F000816080932C0380913C0581FD8DCF86E203
:1047000093E00E94081989E0E6E2F3E0DF011D92E0
:104710008A95E9F781CF981321C090912603D8019B
:104720008C9198131BC020912D0330912E03179666
:104730008D919C9118972817390781F461100EC04C
:104740001696BC92C8010E94081989E0F801A6E2F9
:10475000B3E001900D928A95E1F70BCFC8010E945A
:10476000AC0E811509F4C0C0611409F4BDC080917C
:104770002C03803208F4F3CE809126039091270316
:104780009A838983FC82EB8280912A038D831E8227
:10479000BF8280912D0390912E0399878887CE0147
:1047A00001960E940819DBCED0902C03B0E1DB16F5
:1047B00008F4A5CF511409F4DCCE90912703F80139
:1047C000818198131AC0909126038081981315C097
:1047D00020912D0330912E0387819085281739076A
:1047E00061F461100AC0D682C8010E94081989E0EC
:1047F000D5011D928A95E9F7BCCEC8010E94AC0E86
:10480000811509F471C0611409F46EC080912C0304
:10481000803208F4A4CE80912603909127039A83D6
:104820008983FC82EB8280912A038D831E82DF8242
:10483000B0CF0E94DE0E0E94FD168816990608F081
:1048400057C0511409F495CE611409F44DC09091EC
:104850002703F801818198133DC090912603808140
:10486000981338C020912D0330912E0387819085B5
:104870002817390779F5C0902803D090290360E004
:1048800086E293E00E94DE0E80913C0582FD5DCFC2
:10489000EC18FD088091370590913805E816F90667
:1048A00008F053CF80912C0380FD4FCF803108F466
:1048B0004CCFD80116968C931697982F907F903FE7
:1048C00009F440CF982F907F905F8F70892B1696B8
:1048D0008C9338CFC8010E94AC0E811140CE8091DC
:1048E0002C03816080932C03C8010E94081941CEDB
:1048F00089E0F50111928A95E9F78ECE90913C05F9
:1049000090FF9ACEFCCEA2E1B0E0E9E8F4E20C948C
:1049100015340A871B872C873D874E875F87688BF6
:10492000798B8A8BCE010A960E948722811128C03A
:104930002091DC023091DD0289E0FE013A96DE0131
:10494000119601900D928A95E1F78E858115C1F03F
:10495000822F90E001968770992738171906D9F0B1
:1049600099E0929FD0011124A252BD4FFE013196D1
:1049700001900D929A95E1F78093DC020E940E045B
:1049800019E08091DD029091DC02891312C06296D9
:10499000E4E00C9431340E9482101092DC021092F8
:1049A000DD0289E0E6E2F3E0DF011D928A95E9F796
:1049B000E7CF189FC001112482529D4F0E94872289
:1049C000811529F38091DD0290E001968770992787
:1049D0008093DD02D6CFEF92FF920F931F93CF9378
:1049E000DF9380911A05E0910402CDE0811131C07E
:1049F000CDB7DEB7E6E00C942F34D1E0DE0FD093D4
:104A00000402EE2EF12CCE9FF0011124EE54FB4F48
:104A100084818115E9F087819085892B21F4818536
:104A20009285019659F4008111812281338144815C
:104A300055816681778180850E948324CE9DF00117
:104A4000CF9DF00D1124EE54FB4F148210926A0496
:104A5000ED2F80911A05E81780F210921A05109236
:104A60000402C6CFA4E0B0E0E8E3F5E20C94083419
:104A70002091B104298397E0992EEE24E394F12C40
:104A80003DE0332E44E0542E662463948091B004BC
:104A90009981891308C00E94EB240E9487072496FD
:104AA000E1E10C9424347981672F70E07C836B837F
:104AB000FB01EE0FFF1FEA55FB4F80819181989E0D
:104AC000D001999EB00D1124FD01E259FB4FFA83EC
:104AD000E983248121115BC070901A05E2EBF4E0B8
:104AE00040E050E0812C471508F04FC0A384B48407
:104AF000A981BA81CD90DC900FEF1FEF412C242DBE
:104B000030E0B601640D711D640D711DDB016D9106
:104B10007C916115710539F0A616B70609F0980168
:104B200043948901ECCF0F3F1007D1F1B701002E5C
:104B300001C0660F0A94EAF7862AB701042C02C066
:104B4000660F771F0A94E2F79B0121503109821604
:104B5000130629F5349EF001359EF00D1124EE5414
:104B6000FB4F989ED001999EB00D1124A259BB4FC6
:104B700012962D913C91139730872783548210828F
:104B800011829287818715966C920E9498078B817B
:104B90009C8101969A8389838370898377CF14825D
:104BA0004F5F5F4F3D969FCF10921C0510921B05E3
:104BB00010921A018091B0048093B1040E9487077B
:104BC0000E94EB240895AEE1B0E0E9EEF5E20C942A
:104BD00007344B8B5C8B6D8B7E8B8F8B692F988F03
:104BE000192F811509F475C040E08B899C890E94BA
:104BF000C00E7C01111549F01092470590934605AF
:104C00008093450510926A040AC0809145059091F1
:104C100046058E159F0519F481E080934705188A93
:104C2000198A1A8A86E0FE017396DE011A960190AF
:104C30000D928A95E1F78091440582FF21C0809111
:104C4000210590912205892BD9F00E9446092091D7
:104C50006C0430916D04821B930B209121053091DF
:104C600022058217930738F080916B0482FD03C000
:104C700082E00E9418040E94520981110E9442049D
:104C80008E858115D1F061E0CE010A960E94DE0E7C
:104C900061E0CE010A960E94DE0E61E0CE010A9626
:104CA0000E94DE0E6C0180352CE79207B1F48F85EF
:104CB000811541F181E080931A010A851B852C85BD
:104CC0003D854E855F85688979898A890E9483241C
:104CD000D6C0911509F4A3CF95CF81354CE7940741
:104CE00031F48F85811571F00E94D425E6CF82358D
:104CF0009C4741F48F85811529F080911A0181111B
:104D0000F3CFD8CFEEE6EE2EE4E0FE2E512CA12C10
:104D1000B12C4F84D7016D917C9122242A943324A5
:104D20003A9480E0282F30E0FB01E80FF11DE80FF6
:104D3000F11D408151814115510539F0C416D50648
:104D400009F091018F5F1901EDCF10E0BFEF2B1635
:104D50003B0609F452C0F701448110911A01411138
:104D600010E0D70115967C90159716962C91169702
:104D7000411409F409C1111509F406C180903505E3
:104D800090903605711015C041E050E0022C01C032
:104D9000440F0A94EAF7242B16962C932091AE0424
:104DA0003091AF042815390520F49092AF04809219
:104DB000AE0421E030E0F90102C0EE0FFF1F8A953A
:104DC000E2F7CF010197D70116962C912817190603
:104DD000A1F460901B0570901C056114710409F426
:104DE00052C00E944609861997098816990608F04C
:104DF0004AC081E0F701848311E0512AFFEFAF1A26
:104E0000BF0A27E0E20EF11C48E0A416B10409F045
:104E100080CF411409F414C1511409F411C10E9446
:104E2000460990931C0580931B0580911A058830D4
:104E300030F591E0980F90931A0599E0FE013A96AB
:104E4000DE01119601900D929A95E1F75DE0859F44
:104E5000C00111248E549B4F29E0FE013196DC01E4
:104E600001900D922A95E1F72FEF3FEFDC011A96A2
:104E70003C932E9319971C96DC92CE921B976E96BC
:104E8000E2E10C9423342091B1048091B004922F7C
:104E9000E0E0F0E037E061E0281709F448C0422F75
:104EA00050E0DA01AA0FBB1FAA55BB4F8D909C9012
:104EB0009A8E898E389DD001399DB00D1124A2594A
:104EC000BB4F8D909C909E8E8D8E812C70E0912C8E
:104ED000AD8DBE8DA90DB11DA90DB11D6D907C903C
:104EE00061147104E1F0D7010D90BC91A02DBC8F2D
:104EF000AB8F70E007C001E06A167B0609F000E0A6
:104F0000802A7F5FAB8DBC8DA70FB11DA70FB11D90
:104F10000D90BC91A02D109771F79394D9CF811467
:104F200081F17915C0F421E0F7012483F701909312
:104F3000B104EE15FF0509F460CF90E0FC01EE0F1F
:104F4000FF1FEA55FB4FB182A0820196837099271B
:104F50008093B00452CF898C9A8C389DF001399D92
:104F6000F00D1124E259FB4F6483EE15FF05F1F2B9
:104F7000291302C09F5F93704F5F5F4F242F2370F0
:104F80008BCFE0E0F0E0F8CF30E0711021C061E0BD
:104F900070E002C0660F771F8A95E2F7CB01019798
:104FA0002817390779F010E081E090E0022C01C069
:104FB000880F0A94EAF7982F9095F7018681892344
:104FC00086831BCF411581F3C5010E949807EBCF63
:104FD000A901022C02C0559547950A94E2F7C90130
:104FE000019782239323892B41F540FF26C0D701E7
:104FF00012968D919C91892BD9F087E0FE01319614
:10500000DF011D928A95E9F70E9446099C018B8376
:105010009C8384E08D83F70192818381792F988727
:10502000898709811A8144E05E816F810E9483240F
:10503000D70115961C92172DB7CF142F1170B4CF2E
:105040009091B1048091B004981739F00E943225F4
:10505000B1E05B1609F413CF30CE0E94EB2410921E
:105060001C0510921B050E948707F2CFA6E0B0E056
:10507000ECE3F8E20C9415340E9446098C0180910F
:10508000B0029091B1028017910779F019821A82CB
:105090000E944609BC0149815A8180E090E00E944B
:1050A000E3251093B1020093B0022696E4E00C943D
:1050B0003134A6E0B0E0EFE5F8E20C9417349C013F
:1050C0009093AD028093AC02211580E2380738F44A
:1050D000C9010E94EA0F2696E2E00C94333480EF77
:1050E00089838A830E9446098160BC0149815A8173
:1050F00081E091E00E94E325EECFA6E0B0E0E3E896
:10510000F8E20C9417349C019093AD028093AC02AA
:10511000211580E2380738F4C9010E94451026960F
:10512000E2E00C94333480EF89838A830E9446093D
:105130008160BC0149815A8181E090E00E94E325B1
:10514000EECFCF93DF93D82FC92F0E94592880919B
:105150003D0590913E050E948D0C8D2F9C2F0E9445
:105160007D28DF91CF9108950F931F93CF93DF9305
:105170008C01862F61E473E00E94E816892BA9F464
:10518000C0914103D0914203209779F0F8018281C8
:10519000833051F4CE010E94A128CE010E94A128A3
:1051A000CE010E94A12801C0D8F7DF91CF911F91B5
:1051B0000F9108950F931F93CF93DF938C01EB0111
:1051C00061E473E08C2F0E94E816892B09F05AC025
:1051D000FE01FF27D80112968C911297EA58FD4FD5
:1051E0008130A9F415968C9182FD51C080FF4FC08B
:1051F00082E0808380914303909144030097B9F447
:1052000080914103909142030097E1F110C08230F8
:10521000B9F515968C9182FD28C080FD0BC083E006
:1052200080838091450390914603009701F10E948D
:10523000592828C084E080838091470390914803D7
:105240000097A9F78091410390914203009711F1D3
:105250000E94A1288091430390914403009739F75D
:105260008091410390914203E2CF85E08083809159
:10527000410390914203009729F00E94A128F0CFAA
:1052800086E08083DF91CF911F910F91089581E097
:105290008083B6CF8091430390914403B5CF0F93A1
:1052A0001F93CF93DF938C01EB0161E473E08C2FAC
:1052B0000E94E816892BA1F480913D0590913E054E
:1052C0000E948D0CDD27CA58DD4F8881F8011282BB
:1052D00018828330F1F048F4813059F0823081F047
:1052E000DF91CF911F910F9108958430B9F08530EF
:1052F000B9F78091410390914203009789F306C06A
:105300008091430390914403009799F30E947D2874
:10531000E7CF8091450390914603F6CF80914703F4
:1053200090914803009791F72091410330914203F7
:10533000809143039091440321153105F1F20097C8
:1053400029F7C901E3CFCDB7DEB7E6970FB6F894DA
:10535000DEBF0FBECDBF85B7806885BF85B78068CB
:1053600085BF84B7877F84BF0FB6F894A8958091D6
:105370006000886180936000109260000FBE80E83A
:1053800090E00FB6F89480936100909361000FBE97
:1053900081E08093170180E496E09093BB018093B5
:1053A000BA010E946A060E9425160E9469160E9490
:1053B000B80D0E94E30B0E94320C8091E2008460E1
:1053C0008093E20078948091AB02811599F08091EE
:1053D000E9001091EC008F70179511271795182B85
:1053E0001092E9008091E80083FD0E943A111F703D
:1053F0001093E90082E084BD93E095BD9AEF97BDDC
:1054000080936E000E94F00E811102C00E9415165A
:10541000E4E9F2E088E0DF011D928A95E9F782E095
:105420008093930260E080E00E94210761E080E0C9
:105430000E94210760E081E00E94210761E081E095
:105440000E942107EFE8F1E03197F1F700C000007A
:1054500010E080919302181708F4B8C085E30E9409
:10546000420684E30E94420686EC0E94420687E9D7
:105470000E94420686E60E94420684E90E94420695
:1054800080E90E94420683E0E6EAF2E0DF01282F8D
:105490001D922A95E9F7EEE7F2E0DF011D928A9569
:1054A000E9F780E090E00E947C34853E9E4F21F435
:1054B0000E94F00E811163C065EE7EEF80E090E007
:1054C0000E94B03460E082E090E00E94923481E07B
:1054D00080931D0561E083E090E00E94923460E0DB
:1054E00074E184E090E00E94B03460E086E090E0F7
:1054F0000E94923460E087E090E00E94923440E0A5
:1055000050E0BA0188E090E00E94A43460E083E2B9
:1055100090E00E94923460E08CE090E00E9492342F
:1055200060E08DE090E00E94923419821A821B8222
:105530001C821D821E821F82188648E050E067E1AF
:1055400070E0CE0101960E94823440E050E0BA0142
:105550008FE190E00E94A43480E00E94800D0E94C0
:10556000151640E050E0BA018FE090E00E94A434AC
:1055700040E050E0BA0183E190E00E94A43482E070
:1055800090E00E9474348093830284E090E00E9453
:105590007C3490934405809343050E94AF17EFEF4E
:1055A000F6E721E0E150F0402040E1F700C00000C4
:1055B0000E94AF178091A60280FF1AC06FEF7FEFA5
:1055C00080E090E00E94B0340E94290B60E0812FBF
:1055D0000E944407082F61E0812F0E944407E12FB9
:1055E000F0E0EF56FD4F880F802B80831F5F31CF97
:1055F00083E090E00E9474340E943F0384E091E0D5
:105600009093D3028093D2028091AB02853049F40B
:105610008091AB02853009F4D9C00E9482100E94AB
:105620008A080E94AF179091A60280918402981375
:105630001FC19091A70280918502981319C1909182
:1056400086028091A802981313C10E943628009107
:10565000C8031091C9030115110591F180908B02C7
:1056600090908C02A0908D02B0908E020E94DA0A77
:10567000681979098A099B098090870290908802AD
:10568000A0908902B0908A02681579058A059B0569
:10569000B8F0C8010E94EA0F1092C9031092C80323
:1056A00010928B0210928C0210928D0210928E0238
:1056B00010928702109288021092890210928A0238
:1056C000E0905004F0905104E114F10439F1A090FD
:1056D0005204B09053040E9446098C010A191B0918
:1056E000C7010E94FD1680179107C0F42091500455
:1056F00030915104C9019927287F3327232B09F0C2
:10570000F3C074E0880F991F7A95E1F780539C4F9E
:10571000DC0115962C9122FF0E94D71480911A016A
:10572000811519F100911B0510911C05011511053A
:10573000E1F00E944609801B910B2091AE0430914C
:10574000AF042817390788F49091B1048091B00410
:10575000981709F4CCC00E9432251092AF04109221
:10576000AE0410921C0510921B0580913A0580FF33
:105770001DC08091190182FF19C00E9446092C01A9
:1057800080915404909155049201281B390B80910B
:105790000E0190910F012817390740F041E0B20146
:1057A00080915604909157040E94291480919C0284
:1057B000811551F08091960210929C02809397027D
:1057C000809194028093950200E0E5C08091AB0245
:1057D000843021F11092810288E190E0A0E40FB6BC
:1057E000F894A895809360000FBEA093600083B7E3
:1057F000817F846083BF83B7816083BF78948895FD
:1058000083B78E7F83BF0FB6F894A8958091600010
:10581000886180936000109260000FBE0E94AF17F5
:105820008091A7029091A602892B9091A802892BC2
:10583000811509F4EDCE80918202811509F4E8CE3C
:10584000B0E1B9BDE2E1E9BD09B400FEFDCF809150
:10585000D8008F7D8093D8008091E0008260809393
:10586000E0008091E00081FDFCCF0E948210D0CE4C
:10587000E6EAEE2EE2E0FE2E04E812E0B12CD701BB
:10588000AD907D01F80181918F018A1531F1782E5B
:105890007A24912C88248394872D88218115B1F056
:1058A0009982BA820E9446099C838B83F1E0FD8332
:1058B00091E08A2D8821811101C090E09E83498169
:1058C0005A816B817C818D810E94E3259394880CA1
:1058D00024E09212E1CFF801A292B39433E0B31224
:1058E000CECF0E94DA0AB3CE80E090E011CF0E94C2
:1058F000EB2410921C0510921B050E94870735CFE0
:1059000061E0802F0E944407F82E60E0802F0E9403
:105910004407FF0CF82A202F30E0D901AF56BD4FC5
:10592000EC918E2F8370F816A9F1EE0FEE0FEF2990
:10593000EC93EF70F0E0E25CFE4F21573D4F808129
:10594000F9019081890F808384300CF454C0412F79
:1059500050E0BA016F5F7F4F63707727E616170636
:1059600081F04C565D4F902F9F77DA0114969C93EF
:105970001F5F137010939602909194029F5F909313
:105980009402082E000C990B64E070E00E94E6334C
:10599000D9018C930F5FE09097021091960280914D
:1059A0009302081708F4ACCF90E05CEFF52E6DEF92
:1059B000E62E8091970220919602281709F455C08F
:1059C000E82FF0E0E856FD4F908197FBBB24B0F83C
:1059D000092F0F778F5F83708093970280919502D4
:1059E0008F5F8093950297FD1AC00BA7FCA60E94BB
:1059F000460913E019C08D3F24F6412F50E0BA014B
:105A00006F5F7F4F63707727E616170609F4B9CFEB
:105A10004C565D4F902F9068FA019483A9CF0BA745
:105A2000ECA60E94460912E0BC018DA79EA71FA705
:105A3000B1E0B8AB4BA55CA5812F91E00E94E325B6
:105A400009ABB11481F0EAAA0E944609BC018BABF4
:105A50009CAB1DAB1EAA49A95AA9812F90E00E94B8
:105A6000E32591E0A6CFFAAAEFCF91110E94DA0ABE
:105A700086E0EBE3F3E0DE01119601900D928A954A
:105A8000E1F790903C03B0903D03E0903E03A0907E
:105A90003F03F090400310923D0310923E0310929A
:105AA0003F03109240038B2D8E298115A1F00091A8
:105AB0009F021091A0020E9446099C01201B310BFD
:105AC00090913903911509F48BC0809113018217CD
:105AD000130608F493C08F2D8A298115A1F0009137
